{
  "contractName": "procurement",
  "abi": [
    {
      "inputs": [],
      "stateMutability": "nonpayable",
      "type": "constructor"
    },
    {
      "anonymous": false,
      "inputs": [
        {
          "indexed": false,
          "internalType": "uint256",
          "name": "job_id",
          "type": "uint256"
        },
        {
          "indexed": false,
          "internalType": "string",
          "name": "name",
          "type": "string"
        },
        {
          "indexed": false,
          "internalType": "string",
          "name": "price_unity",
          "type": "string"
        },
        {
          "indexed": false,
          "internalType": "string",
          "name": "total_price",
          "type": "string"
        },
        {
          "indexed": false,
          "internalType": "string",
          "name": "zimraITF263",
          "type": "string"
        },
        {
          "indexed": false,
          "internalType": "string",
          "name": "praz",
          "type": "string"
        },
        {
          "indexed": false,
          "internalType": "string",
          "name": "validity",
          "type": "string"
        }
      ],
      "name": "Bidders",
      "type": "event"
    },
    {
      "anonymous": false,
      "inputs": [
        {
          "indexed": false,
          "internalType": "string",
          "name": "name",
          "type": "string"
        },
        {
          "indexed": false,
          "internalType": "string",
          "name": "product_type",
          "type": "string"
        },
        {
          "indexed": false,
          "internalType": "string",
          "name": "product",
          "type": "string"
        },
        {
          "indexed": false,
          "internalType": "string",
          "name": "requirements",
          "type": "string"
        },
        {
          "indexed": false,
          "internalType": "string",
          "name": "date",
          "type": "string"
        },
        {
          "indexed": false,
          "internalType": "string",
          "name": "delivery_period",
          "type": "string"
        },
        {
          "indexed": false,
          "internalType": "uint256",
          "name": "job",
          "type": "uint256"
        }
      ],
      "name": "Jobs",
      "type": "event"
    },
    {
      "anonymous": false,
      "inputs": [
        {
          "indexed": false,
          "internalType": "uint256",
          "name": "job_id",
          "type": "uint256"
        },
        {
          "indexed": false,
          "internalType": "string",
          "name": "name",
          "type": "string"
        },
        {
          "indexed": false,
          "internalType": "string",
          "name": "price_unity",
          "type": "string"
        },
        {
          "indexed": false,
          "internalType": "string",
          "name": "total_price",
          "type": "string"
        },
        {
          "indexed": false,
          "internalType": "string",
          "name": "zimraITF263",
          "type": "string"
        },
        {
          "indexed": false,
          "internalType": "string",
          "name": "praz",
          "type": "string"
        },
        {
          "indexed": false,
          "internalType": "string",
          "name": "validity",
          "type": "string"
        }
      ],
      "name": "Winner",
      "type": "event"
    },
    {
      "inputs": [],
      "name": "job_id",
      "outputs": [
        {
          "internalType": "uint256",
          "name": "",
          "type": "uint256"
        }
      ],
      "stateMutability": "view",
      "type": "function",
      "constant": true
    },
    {
      "inputs": [
        {
          "internalType": "address",
          "name": "",
          "type": "address"
        }
      ],
      "name": "supplier",
      "outputs": [
        {
          "internalType": "uint256",
          "name": "job_id",
          "type": "uint256"
        },
        {
          "internalType": "string",
          "name": "name",
          "type": "string"
        },
        {
          "internalType": "string",
          "name": "price_unit",
          "type": "string"
        },
        {
          "internalType": "string",
          "name": "total_price",
          "type": "string"
        },
        {
          "internalType": "string",
          "name": "zimraITF263",
          "type": "string"
        },
        {
          "internalType": "string",
          "name": "praz",
          "type": "string"
        },
        {
          "internalType": "string",
          "name": "validity",
          "type": "string"
        }
      ],
      "stateMutability": "view",
      "type": "function",
      "constant": true
    },
    {
      "inputs": [
        {
          "internalType": "address",
          "name": "",
          "type": "address"
        }
      ],
      "name": "transaction",
      "outputs": [
        {
          "internalType": "string",
          "name": "name",
          "type": "string"
        },
        {
          "internalType": "string",
          "name": "product_type",
          "type": "string"
        },
        {
          "internalType": "string",
          "name": "product",
          "type": "string"
        },
        {
          "internalType": "string",
          "name": "requirements",
          "type": "string"
        },
        {
          "internalType": "string",
          "name": "date",
          "type": "string"
        },
        {
          "internalType": "string",
          "name": "delivery_period",
          "type": "string"
        },
        {
          "internalType": "uint256",
          "name": "job",
          "type": "uint256"
        }
      ],
      "stateMutability": "view",
      "type": "function",
      "constant": true
    },
    {
      "inputs": [
        {
          "internalType": "address",
          "name": "",
          "type": "address"
        }
      ],
      "name": "user",
      "outputs": [
        {
          "internalType": "uint256",
          "name": "",
          "type": "uint256"
        }
      ],
      "stateMutability": "view",
      "type": "function",
      "constant": true
    },
    {
      "inputs": [
        {
          "internalType": "string",
          "name": "_name",
          "type": "string"
        },
        {
          "internalType": "string",
          "name": "_productType",
          "type": "string"
        },
        {
          "internalType": "string",
          "name": "_product",
          "type": "string"
        },
        {
          "internalType": "string",
          "name": "_req",
          "type": "string"
        },
        {
          "internalType": "string",
          "name": "_date",
          "type": "string"
        },
        {
          "internalType": "string",
          "name": "_del",
          "type": "string"
        }
      ],
      "name": "addTransaction",
      "outputs": [],
      "stateMutability": "nonpayable",
      "type": "function"
    },
    {
      "inputs": [
        {
          "internalType": "uint256",
          "name": "_job",
          "type": "uint256"
        },
        {
          "internalType": "string",
          "name": "_supNm",
          "type": "string"
        },
        {
          "internalType": "string",
          "name": "unit_price",
          "type": "string"
        },
        {
          "internalType": "string",
          "name": "total_price",
          "type": "string"
        },
        {
          "internalType": "string",
          "name": "_zimraITF263",
          "type": "string"
        },
        {
          "internalType": "string",
          "name": "_praz",
          "type": "string"
        },
        {
          "internalType": "string",
          "name": "_validity",
          "type": "string"
        }
      ],
      "name": "addSuppliers",
      "outputs": [],
      "stateMutability": "nonpayable",
      "type": "function"
    },
    {
      "inputs": [
        {
          "internalType": "address",
          "name": "_addr",
          "type": "address"
        },
        {
          "internalType": "uint256",
          "name": "_id",
          "type": "uint256"
        }
      ],
      "name": "setJob_id",
      "outputs": [],
      "stateMutability": "nonpayable",
      "type": "function"
    },
    {
      "inputs": [
        {
          "internalType": "uint256",
          "name": "_job",
          "type": "uint256"
        },
        {
          "internalType": "string",
          "name": "_supNm",
          "type": "string"
        },
        {
          "internalType": "string",
          "name": "unit_price",
          "type": "string"
        },
        {
          "internalType": "string",
          "name": "total_price",
          "type": "string"
        },
        {
          "internalType": "string",
          "name": "_zimraITF263",
          "type": "string"
        },
        {
          "internalType": "string",
          "name": "_praz",
          "type": "string"
        },
        {
          "internalType": "string",
          "name": "_validity",
          "type": "string"
        }
      ],
      "name": "award_bider",
      "outputs": [],
      "stateMutability": "nonpayable",
      "type": "function"
    }
  ],
  "bytecode": "0x60806040526000805534801561001457600080fd5b5033600160006101000a81548173ffffffffffffffffffffffffffffffffffffffff021916908373ffffffffffffffffffffffffffffffffffffffff1602179055506116bc806100656000396000f3fe608060405234801561001057600080fd5b50600436106100885760003560e01c8063b0ea37221161005b578063b0ea37221461012d578063e3eb842b14610149578063eb3cc1971461017f578063f3e790081461019b57610088565b8063566690ec1461008d57806381e7e20e146100c357806392ed3593146100f3578063abec8a561461010f575b600080fd5b6100a760048036038101906100a29190610f1d565b6101b7565b6040516100ba9796959493929190611274565b60405180910390f35b6100dd60048036038101906100d89190610f1d565b610529565b6040516100ea919061132d565b60405180910390f35b61010d600480360381019061010891906110bf565b610541565b005b610117610692565b604051610124919061132d565b60405180910390f35b61014760048036038101906101429190610f4a565b610698565b005b610163600480360381019061015e9190610f1d565b6106e0565b6040516101769796959493929190611348565b60405180910390f35b610199600480360381019061019491906110bf565b610a52565b005b6101b560048036038101906101b09190610f8a565b610c75565b005b60036020528060005260406000206000915090508060000180546101da906114d1565b80601f0160208091040260200160405190810160405280929190818152602001828054610206906114d1565b80156102535780601f1061022857610100808354040283529160200191610253565b820191906000526020600020905b81548152906001019060200180831161023657829003601f168201915b505050505090806001018054610268906114d1565b80601f0160208091040260200160405190810160405280929190818152602001828054610294906114d1565b80156102e15780601f106102b6576101008083540402835291602001916102e1565b820191906000526020600020905b8154815290600101906020018083116102c457829003601f168201915b5050505050908060020180546102f6906114d1565b80601f0160208091040260200160405190810160405280929190818152602001828054610322906114d1565b801561036f5780601f106103445761010080835404028352916020019161036f565b820191906000526020600020905b81548152906001019060200180831161035257829003601f168201915b505050505090806003018054610384906114d1565b80601f01602080910402602001604051908101604052809291908181526020018280546103b0906114d1565b80156103fd5780601f106103d2576101008083540402835291602001916103fd565b820191906000526020600020905b8154815290600101906020018083116103e057829003601f168201915b505050505090806004018054610412906114d1565b80601f016020809104026020016040519081016040528092919081815260200182805461043e906114d1565b801561048b5780601f106104605761010080835404028352916020019161048b565b820191906000526020600020905b81548152906001019060200180831161046e57829003601f168201915b5050505050908060050180546104a0906114d1565b80601f01602080910402602001604051908101604052809291908181526020018280546104cc906114d1565b80156105195780601f106104ee57610100808354040283529160200191610519565b820191906000526020600020905b8154815290600101906020018083116104fc57829003601f168201915b5050505050908060060154905087565b60046020528060005260406000206000915090505481565b600060026000600160009054906101000a900473ffffffffffffffffffffffffffffffffffffffff1673ffffffffffffffffffffffffffffffffffffffff1673ffffffffffffffffffffffffffffffffffffffff1681526020019081526020016000209050878160000181905550868160010190805190602001906105c7929190610de0565b50858160020190805190602001906105e0929190610de0565b50848160030190805190602001906105f9929190610de0565b5083816004019080519060200190610612929190610de0565b508281600501908051906020019061062b929190610de0565b5081816006019080519060200190610644929190610de0565b507ffe863dcd1215b363d67e4dd5a913329f8a19f5b4c3f7e152eb2bbe87802b965a888888888888886040516106809796959493929190611348565b60405180910390a15050505050505050565b60005481565b80600460008473ffffffffffffffffffffffffffffffffffffffff1673ffffffffffffffffffffffffffffffffffffffff168152602001908152602001600020819055505050565b6002602052806000526040600020600091509050806000015490806001018054610709906114d1565b80601f0160208091040260200160405190810160405280929190818152602001828054610735906114d1565b80156107825780601f1061075757610100808354040283529160200191610782565b820191906000526020600020905b81548152906001019060200180831161076557829003601f168201915b505050505090806002018054610797906114d1565b80601f01602080910402602001604051908101604052809291908181526020018280546107c3906114d1565b80156108105780601f106107e557610100808354040283529160200191610810565b820191906000526020600020905b8154815290600101906020018083116107f357829003601f168201915b505050505090806003018054610825906114d1565b80601f0160208091040260200160405190810160405280929190818152602001828054610851906114d1565b801561089e5780601f106108735761010080835404028352916020019161089e565b820191906000526020600020905b81548152906001019060200180831161088157829003601f168201915b5050505050908060040180546108b3906114d1565b80601f01602080910402602001604051908101604052809291908181526020018280546108df906114d1565b801561092c5780601f106109015761010080835404028352916020019161092c565b820191906000526020600020905b81548152906001019060200180831161090f57829003601f168201915b505050505090806005018054610941906114d1565b80601f016020809104026020016040519081016040528092919081815260200182805461096d906114d1565b80156109ba5780601f1061098f576101008083540402835291602001916109ba565b820191906000526020600020905b81548152906001019060200180831161099d57829003601f168201915b5050505050908060060180546109cf906114d1565b80601f01602080910402602001604051908101604052809291908181526020018280546109fb906114d1565b8015610a485780601f10610a1d57610100808354040283529160200191610a48565b820191906000526020600020905b815481529060010190602001808311610a2b57829003601f168201915b5050505050905087565b868060046000600160009054906101000a900473ffffffffffffffffffffffffffffffffffffffff1673ffffffffffffffffffffffffffffffffffffffff1673ffffffffffffffffffffffffffffffffffffffff168152602001908152602001600020541415610af7576040517f08c379a0000000000000000000000000000000000000000000000000000000008152600401610aee9061130d565b60405180910390fd5b600060026000600160009054906101000a900473ffffffffffffffffffffffffffffffffffffffff1673ffffffffffffffffffffffffffffffffffffffff1673ffffffffffffffffffffffffffffffffffffffff168152602001908152602001600020905088816000018190555087816001019080519060200190610b7d929190610de0565b5086816002019080519060200190610b96929190610de0565b5085816003019080519060200190610baf929190610de0565b5084816004019080519060200190610bc8929190610de0565b5083816005019080519060200190610be1929190610de0565b5082816006019080519060200190610bfa929190610de0565b507f73cef2a713f9cdae2352e3bb26eeaf81cb40a5c355ba779aa92d8ab760d490ee89898989898989604051610c369796959493929190611348565b60405180910390a150610c6b600160009054906101000a900473ffffffffffffffffffffffffffffffffffffffff1682610698565b5050505050505050565b600060036000600160009054906101000a900473ffffffffffffffffffffffffffffffffffffffff1673ffffffffffffffffffffffffffffffffffffffff1673ffffffffffffffffffffffffffffffffffffffff1681526020019081526020016000209050600080815480929190610cec90611534565b919050555086816000019080519060200190610d09929190610de0565b5085816001019080519060200190610d22929190610de0565b5084816002019080519060200190610d3b929190610de0565b5083816003019080519060200190610d54929190610de0565b5082816004019080519060200190610d6d929190610de0565b5081816005019080519060200190610d86929190610de0565b5060005481600601819055507f0feeac945cb92d141a75d909a47c88a3dc8fdec61826616bb044bf3e061ca6f9878787878787600054604051610dcf9796959493929190611274565b60405180910390a150505050505050565b828054610dec906114d1565b90600052602060002090601f016020900481019282610e0e5760008555610e55565b82601f10610e2757805160ff1916838001178555610e55565b82800160010185558215610e55579182015b82811115610e54578251825591602001919060010190610e39565b5b509050610e629190610e66565b5090565b5b80821115610e7f576000816000905550600101610e67565b5090565b6000610e96610e9184611406565b6113e1565b905082815260208101848484011115610eb257610eb161160f565b5b610ebd84828561148f565b509392505050565b600081359050610ed481611658565b92915050565b600082601f830112610eef57610eee61160a565b5b8135610eff848260208601610e83565b91505092915050565b600081359050610f178161166f565b92915050565b600060208284031215610f3357610f32611619565b5b6000610f4184828501610ec5565b91505092915050565b60008060408385031215610f6157610f60611619565b5b6000610f6f85828601610ec5565b9250506020610f8085828601610f08565b9150509250929050565b60008060008060008060c08789031215610fa757610fa6611619565b5b600087013567ffffffffffffffff811115610fc557610fc4611614565b5b610fd189828a01610eda565b965050602087013567ffffffffffffffff811115610ff257610ff1611614565b5b610ffe89828a01610eda565b955050604087013567ffffffffffffffff81111561101f5761101e611614565b5b61102b89828a01610eda565b945050606087013567ffffffffffffffff81111561104c5761104b611614565b5b61105889828a01610eda565b935050608087013567ffffffffffffffff81111561107957611078611614565b5b61108589828a01610eda565b92505060a087013567ffffffffffffffff8111156110a6576110a5611614565b5b6110b289828a01610eda565b9150509295509295509295565b600080600080600080600060e0888a0312156110de576110dd611619565b5b60006110ec8a828b01610f08565b975050602088013567ffffffffffffffff81111561110d5761110c611614565b5b6111198a828b01610eda565b965050604088013567ffffffffffffffff81111561113a57611139611614565b5b6111468a828b01610eda565b955050606088013567ffffffffffffffff81111561116757611166611614565b5b6111738a828b01610eda565b945050608088013567ffffffffffffffff81111561119457611193611614565b5b6111a08a828b01610eda565b93505060a088013567ffffffffffffffff8111156111c1576111c0611614565b5b6111cd8a828b01610eda565b92505060c088013567ffffffffffffffff8111156111ee576111ed611614565b5b6111fa8a828b01610eda565b91505092959891949750929550565b600061121482611437565b61121e8185611442565b935061122e81856020860161149e565b6112378161161e565b840191505092915050565b600061124f600583611442565b915061125a8261162f565b602082019050919050565b61126e81611485565b82525050565b600060e082019050818103600083015261128e818a611209565b905081810360208301526112a28189611209565b905081810360408301526112b68188611209565b905081810360608301526112ca8187611209565b905081810360808301526112de8186611209565b905081810360a08301526112f28185611209565b905061130160c0830184611265565b98975050505050505050565b6000602082019050818103600083015261132681611242565b9050919050565b60006020820190506113426000830184611265565b92915050565b600060e08201905061135d600083018a611265565b818103602083015261136f8189611209565b905081810360408301526113838188611209565b905081810360608301526113978187611209565b905081810360808301526113ab8186611209565b905081810360a08301526113bf8185611209565b905081810360c08301526113d38184611209565b905098975050505050505050565b60006113eb6113fc565b90506113f78282611503565b919050565b6000604051905090565b600067ffffffffffffffff821115611421576114206115db565b5b61142a8261161e565b9050602081019050919050565b600081519050919050565b600082825260208201905092915050565b600061145e82611465565b9050919050565b600073ffffffffffffffffffffffffffffffffffffffff82169050919050565b6000819050919050565b82818337600083830152505050565b60005b838110156114bc5780820151818401526020810190506114a1565b838111156114cb576000848401525b50505050565b600060028204905060018216806114e957607f821691505b602082108114156114fd576114fc6115ac565b5b50919050565b61150c8261161e565b810181811067ffffffffffffffff8211171561152b5761152a6115db565b5b80604052505050565b600061153f82611485565b91507fffffffffffffffffffffffffffffffffffffffffffffffffffffffffffffffff8214156115725761157161157d565b5b600182019050919050565b7f4e487b7100000000000000000000000000000000000000000000000000000000600052601160045260246000fd5b7f4e487b7100000000000000000000000000000000000000000000000000000000600052602260045260246000fd5b7f4e487b7100000000000000000000000000000000000000000000000000000000600052604160045260246000fd5b600080fd5b600080fd5b600080fd5b600080fd5b6000601f19601f8301169050919050565b7f4578697374000000000000000000000000000000000000000000000000000000600082015250565b61166181611453565b811461166c57600080fd5b50565b61167881611485565b811461168357600080fd5b5056fea2646970667358221220057bbe3c8ad31948f6dd35b48fad24238c84ad99428c399b03ab2861c7a5b7d764736f6c63430008060033",
  "immutableReferences": {},
  "source": "pragma solidity >=0.7.0 <0.9.0;\n\n\n\ncontract procurement {\n\n    uint public job_id = 0;\n    address owner;\n    \n    constructor() {\n        owner = msg.sender;\n    }\n    \n    struct Supplier_details {\n        uint job_id;\n        string name;\n        string price_unit;\n        string total_price;\n        string zimraITF263;\n        string praz;\n        string validity;\n    }\n    \n    mapping(address => Supplier_details ) public supplier;\n\n    struct Client {\n        string name;\n        string product_type;\n        string product;\n        string requirements;\n        string date;\n        string delivery_period;\n        uint job;\n    }\n    \n    mapping(address => Client) public transaction;\n    \n    event Jobs (\n        string name,\n        string product_type,\n        string product,\n        string requirements,\n        string date,\n        string delivery_period,\n        uint job\n    );\n    \n    event Bidders (\n        uint job_id,\n        string name,\n        string price_unity,\n        string total_price,\n        string zimraITF263,\n        string praz,\n        string validity\n    );\n\n    event Winner (\n        uint job_id,\n        string name,\n        string price_unity,\n        string total_price,\n        string zimraITF263,\n        string praz,\n        string validity\n    );\n\n    mapping (address => uint) public user;\n        \n    \n    function addTransaction(string memory _name, string memory _productType, string memory _product, string memory _req, string memory _date, string memory _del) public {\n       \n        \n        Client storage client = transaction[owner];\n        job_id++;\n        client.name = _name;\n        client.product_type = _productType;\n        client.product = _product;\n        client.requirements = _req;\n        client.date = _date;                \n        client.delivery_period = _del;\n        client.job = job_id;\n        \n\n        emit Jobs(\n            _name,\n            _productType,\n            _product,\n            _req,\n            _date,\n            _del,\n            job_id\n        );\n    }\n    \n    function addSuppliers(uint _job,string memory _supNm, string memory unit_price, string memory total_price, string memory _zimraITF263, string memory _praz, string memory _validity) public {\n        \n        \n        Supplier_details storage bid = supplier[owner];\n        bid.job_id = _job;\n        bid.name = _supNm;\n        bid.price_unit = unit_price;\n        bid.total_price = total_price;\n        bid.zimraITF263 = _zimraITF263;\n        bid.praz = _praz;                \n        bid.validity = _validity;\n        \n        emit Bidders(\n            _job,\n            _supNm,\n            unit_price,\n            total_price,\n            _zimraITF263,\n            _praz,\n            _validity\n        );\n    }\n    \n    //setJob_id maps user to job.id for the tender\n    function setJob_id(address _addr, uint _id) public {\n        user[_addr] = _id;\n    }\n\n    // Exist() makes user to award bider only once by using user[]\n    modifier Exist(uint _id) {\n        require(user[owner] != _id, \"Exist\");\n        _;\n        setJob_id(owner, _id);\n    }\n    \n    \n    function award_bider(uint _job, string memory _supNm, string memory unit_price, string memory total_price, string memory _zimraITF263, string memory _praz, string memory _validity) Exist(_job) public  {\n        \n        \n        Supplier_details storage bid = supplier[owner];\n        bid.job_id = _job;\n        bid.name = _supNm;\n        bid.price_unit = unit_price;\n        bid.total_price = total_price;\n        bid.zimraITF263 = _zimraITF263;\n        bid.praz = _praz;                \n        bid.validity = _validity; \n        \n        \n        emit Winner(\n            _job,\n            _supNm,\n            unit_price,\n            total_price,\n            _zimraITF263,\n            _praz,\n            _validity\n        );\n\n    }\n    \n    \n    \n       \n    \n}\n",
  "sourcePath": "/home/jd/Django/board/myproject/dapp/smartContract/contracts/proc_sys.sol",
  "compiler": {
    "name": "solc",
    "version": "0.8.6+commit.11564f7e.Emscripten.clang"
  },
  "schemaVersion": "3.4.0",
  "updatedAt": "2021-09-07T21:25:35.446Z",
  "networkType": "ethereum",
  "devdoc": {
    "kind": "dev",
    "methods": {},
    "version": 1
  },
  "userdoc": {
    "kind": "user",
    "methods": {},
    "version": 1
  }
}